:100000000C942A000C9447000C9447000C94470071
:100010000C9447000C9447000C9447000C94470044
:100020000C9447000C9447000C9447000C94470034
:100030000C9447000C9447000C9447000C94470024
:100040000C9447000C9447000C9447000C94470014
:100050000C94470011241FBECFE5D8E0DEBFCDBF12
:1000600010E0A0E6B0E0EAEBF1E002C005900D92EE
:10007000A236B107D9F710E0A2E6B0E001C01D92A8
:10008000A636B107E1F70E94A5000C94DB000C94A2
:10009000000080E587B986E886B90895539A80B54F
:1000A000866880BD8091600089B90895369A369936
:1000B000FECF24B135B1C90108959C0168EE73E00B
:1000C0000E94C700605D60936200C90168EE73E042
:1000D0000E94C70064E670E00E94C700605D609304
:1000E0006300C90164E670E00E94C7006AE070E046
:1000F0000E94C700605D60936400C9016AE070E01F
:100100000E94C700805D8093650008955D9BFECFCF
:100110008CB95E9BFECF08950F931F938C01FC0159
:1001200080810E948600F80181810E948600F8018A
:1001300082810E948600F80183810E94860080E20D
:100140000E9486001F910F910895CF93DF9380E561
:1001500087B986E886B9539A80B5866880BD809154
:10016000600089B9C8ECD0E0369A3699FECF84B1E8
:1001700095B10E945D0082E690E00E948C0088EEBE
:1001800093E0FE013197F1F70197D9F7EDCFAA1B64
:10019000BB1B51E107C0AA1FBB1FA617B70710F072
:1001A000A61BB70B881F991F5A95A9F780959095A4
:0A01B000BC01CD010895F894FFCFC3
:0201BA00330010
:00000001FF
